S010000070726573737572652E737265639B
S113000019C028C027C026C025C024C023C022C0D0
S113001021C020C01FC01EC01DC01CC01BC01AC0F0
S113002019C018C017C016C015C014C013C012C020
S113003011C010C011241FBECFEFD4E0DEBFCDBF6E
S113004021E0A0E0B1E001C01D92A430B207E1F7C5
S113005002D06DC0D5CF84B7877F84BF88E10FB647
S1130060F89480936000109260000FBE90E080E8E6
S11300700FB6F89480936100909361000FBE4BD04B
S113008061E070E080E090E03DD016D08730C1F7A9
S11300902EE088E190E00FB6F894A8958093600074
S11300A00FBE20936000FFCFE0ECF0E0908195FF5D
S11300B0FDCF8093C6000895CF93E0ECF0E08081FB
S11300C08823ECF7C091C6004091000150910101D2
S11300D0609102017091030141155105610571059B
S11300E071F0415051096109710940930001509325
S11300F0010160930201709303018C2FD5DF8C2FD3
S1130100CF910895609300017093010180930201DF
S113011090930301089588E18093C10086E8809359
S1130120C2001092C50083E08093C4000895F8943F
S1050130FFCFFB
S9030000FC
