:1018000019C028C027C026C025C024C023C022C0BC
:1018100021C020C01FC01EC01DC01CC01BC01AC0DC
:1018200019C018C017C016C015C014C013C012C00C
:1018300011C010C011241FBECFEFD4E0DEBFCDBF5A
:1018400021E0A0E0B1E001C01D92A530B207E1F7B0
:101850002ED11AC2D5CF1F93CF93DF93CFB7F9996B
:10186000FECF83E0FB0180935700E89507B600FCAC
:10187000FDCF80E090E0D1E0DA01A80FB91F1C9104
:10188000FC01E60FF71F11963C9120E0D901A10F52
:10189000B11D0D01D0935700E895112402968034B4
:1018A000910551F785E0FB0180935700E89507B655
:1018B00000FCFDCF81E180935700E895CFBFDF9119
:1018C000CF911F9108954F925F926F927F928F9266
:1018D0009F92AF92BF92CF92DF92EF92FF920F93BF
:1018E0001F93CF93DF93CDB7DEB7C054D1090FB6A6
:1018F000F894DEBF0FBECDBF13E0BDC03DD18093D5
:101900000001B5C0843009F477C030F4823061F052
:10191000833009F09CC01EC0863079F008F484C082
:10192000873009F094C090C082E0F6D04BD17C01A2
:10193000FBD0B70180E090E05DC082E0EDD083E0B5
:1019400090E0F2D086E0E8D060E071E080E090E0E6
:10195000FAD067C083E0E0D068E070E080E090E01B
:101960005FD13AD16B017C0137D14B015C0158D179
:10197000C11481E0D806E104F104D1F524C0FCD003
:10198000E1E0F0E0EC0FFD1FE00FF11D80830F5F41
:10199000003498F0AE014F5F5F4FC701B6015BDFC7
:1019A00080E4C80ED11CE11CF11C40E450E06FEF54
:1019B00070E0CE01019661D100E08FEF481A580A1D
:1019C000680A780A07C0C12CD12C760100E0412CAE
:1019D000512C3201481459046A047B0481F6AE018B
:1019E0004F5F5F4FC701B60136DF1092050139C066
:1019F000C501B4011ED135C082E08ED081E098E1EE
:101A000093D084E089D0E12CF12CF7012591349119
:101A1000C90192D082E0E80EF11CE11488E1F806D9
:101A2000A1F78091000111C0E0E0F0E010935700B1
:101A3000E89507B600FCFDCFE05CFF4FE11588E1BB
:101A4000F807A1F785E001C087E066D00AC082E010
:101A500063D08FEF61D0809100015ED084E094E08C
:101A600063D01092000160E070E0CB01D9D080918A
:101A70000001811147CF8091050181113FCFC05CEA
:101A8000DF4F0FB6F894DEBF0FBECDBFDF91CF9111
:101A90001F910F91FF90EF90DF90CF90BF90AF908C
:101AA0009F908F907F906F905F904F900895C4B7F4
:101AB000C87084B7877F84BF88E10FB6F89480939D
:101AC0006000109260000FBE90E080E80FB6F894BE
:101AD00080936100909361000FBEC3D0E0E0F0E01E
:101AE00085919491019611F0CC2319F081E08093B7
:101AF0000501809105018111E6DEE0E0F0E0099545
:101B00002CE088E190E00FB6F894A89580936000EF
:101B10000FBE20936000FFCFE0ECF0E0908195FFD6
:101B2000FDCF8093C6000895CF93C82F892FF4DF8F
:101B30008C2FF2DFCF910895CF93C92FEDDF8C2F3B
:101B4000EBDFCF910895CF93DF9300D000D0CDB7D6
:101B5000DEB769837A838B839C83862FDDDF8A815E
:101B6000DBDF8B81D9DF8C81D7DF0F900F900F9057
:101B70000F90DF91CF910895CF93E0ECF0E080815A
:101B80008823ECF7C091C6004091010150910201F9
:101B900060910301709104014115510561057105C2
:101BA00071F041505109610971094093010150934D
:101BB000020160930301709304018C2FADDF8C2F21
:101BC000CF910895CF93D8DFC82FD6DF20E0282B00
:101BD000822F9C2FCF9108950F931F93CF93DF9364
:101BE000CBDFD82FC9DF082FC7DFC82FC5DF10E034
:101BF00020E030E09801112700273D2B082B9C2F77
:101C000080E0A0E0B0E0082B192B2A2B3B2B602FA3
:101C1000712F822F932FDF91CF911F910F910895F4
:101C2000609301017093020180930301909304017A
:101C30000895CF92DF92EF92FF926B017C016115C4
:101C400071058105910541F097DF66DF81E0C81AD3
:101C5000D108E108F108C1F7FF90EF90DF90CF9035
:101C6000089588E18093C10086E88093C2001092B5
:101C7000C50083E08093C4000895DC0101C06D932A
:0C1C800041505040E0F70895F894FFCF69
:0400000300001800E1
:00000001FF
